{
  "contractName": "Shipments",
  "abi": [
    {
      "constant": true,
      "inputs": [
        {
          "name": "",
          "type": "uint256"
        }
      ],
      "name": "deployedConsignments",
      "outputs": [
        {
          "name": "",
          "type": "address"
        }
      ],
      "payable": false,
      "stateMutability": "view",
      "type": "function"
    },
    {
      "constant": true,
      "inputs": [],
      "name": "dispatcher",
      "outputs": [
        {
          "name": "",
          "type": "address"
        }
      ],
      "payable": false,
      "stateMutability": "view",
      "type": "function"
    },
    {
      "inputs": [],
      "payable": true,
      "stateMutability": "payable",
      "type": "constructor"
    },
    {
      "constant": false,
      "inputs": [
        {
          "name": "good",
          "type": "string"
        },
        {
          "name": "price",
          "type": "uint256"
        },
        {
          "name": "quantity_available",
          "type": "uint256"
        }
      ],
      "name": "createConsignment",
      "outputs": [
        {
          "name": "",
          "type": "address"
        }
      ],
      "payable": false,
      "stateMutability": "nonpayable",
      "type": "function"
    },
    {
      "constant": true,
      "inputs": [],
      "name": "getDeployedConsignments",
      "outputs": [
        {
          "name": "",
          "type": "address[]"
        }
      ],
      "payable": false,
      "stateMutability": "view",
      "type": "function"
    }
  ],
  "bytecode": "0x608060405233600160006101000a81548173ffffffffffffffffffffffffffffffffffffffff021916908373ffffffffffffffffffffffffffffffffffffffff160217905550611814806100546000396000f300608060405260043610610062576000357c0100000000000000000000000000000000000000000000000000000000900463ffffffff168063686e03d3146100675780639ea4857e146100d4578063cb7e905714610191578063fee84067146101e8575b600080fd5b34801561007357600080fd5b5061009260048036038101908080359060200190929190505050610254565b604051808273ffffffffffffffffffffffffffffffffffffffff1673ffffffffffffffffffffffffffffffffffffffff16815260200191505060405180910390f35b3480156100e057600080fd5b5061014f600480360381019080803590602001908201803590602001908080601f01602080910402602001604051908101604052809392919081815260200183838082843782019150505050505091929192908035906020019092919080359060200190929190505050610292565b604051808273ffffffffffffffffffffffffffffffffffffffff1673ffffffffffffffffffffffffffffffffffffffff16815260200191505060405180910390f35b34801561019d57600080fd5b506101a6610453565b604051808273ffffffffffffffffffffffffffffffffffffffff1673ffffffffffffffffffffffffffffffffffffffff16815260200191505060405180910390f35b3480156101f457600080fd5b506101fd610479565b6040518080602001828103825283818151815260200191508051906020019060200280838360005b83811015610240578082015181840152602081019050610225565b505050509050019250505060405180910390f35b60008181548110151561026357fe5b906000526020600020016000915054906101000a900473ffffffffffffffffffffffffffffffffffffffff1681565b60008060026000815480929190600101919050555084848460025433600160009054906101000a900473ffffffffffffffffffffffffffffffffffffffff166102d9610507565b80806020018781526020018681526020018581526020018473ffffffffffffffffffffffffffffffffffffffff1673ffffffffffffffffffffffffffffffffffffffff1681526020018373ffffffffffffffffffffffffffffffffffffffff1673ffffffffffffffffffffffffffffffffffffffff168152602001828103825288818151815260200191508051906020019080838360005b8381101561038c578082015181840152602081019050610371565b50505050905090810190601f1680156103b95780820380516001836020036101000a031916815260200191505b50975050505050505050604051809103906000f0801580156103df573d6000803e3d6000fd5b50905060008190806001815401808255809150509060018203906000526020600020016000909192909190916101000a81548173ffffffffffffffffffffffffffffffffffffffff021916908373ffffffffffffffffffffffffffffffffffffffff16021790555050809150509392505050565b600160009054906101000a900473ffffffffffffffffffffffffffffffffffffffff1681565b606060008054806020026020016040519081016040528092919081815260200182805480156104fd57602002820191906000526020600020905b8160009054906101000a900473ffffffffffffffffffffffffffffffffffffffff1673ffffffffffffffffffffffffffffffffffffffff16815260200190600101908083116104b3575b5050505050905090565b6040516112d18061051883390190560060806040526040516112d13803806112d1833981018060405281019080805182019291906020018051906020019092919080519060200190929190805190602001909291908051906020019092919080519060200190929190505050816000806101000a81548173ffffffffffffffffffffffffffffffffffffffff021916908373ffffffffffffffffffffffffffffffffffffffff16021790555080600260006101000a81548173ffffffffffffffffffffffffffffffffffffffff021916908373ffffffffffffffffffffffffffffffffffffffff1602179055508260036000018190555085600360010190805190602001906100ff92919061011e565b50846003800181905550836003600201819055505050505050506101c3565b828054600181600116156101000203166002900490600052602060002090601f016020900481019282601f1061015f57805160ff191683800117855561018d565b8280016001018555821561018d579182015b8281111561018c578251825591602001919060010190610171565b5b50905061019a919061019e565b5090565b6101c091905b808211156101bc5760008160009055506001016101a4565b5090565b90565b6110ff806101d26000396000f3006080604052600436106100a4576000357c0100000000000000000000000000000000000000000000000000000000900463ffffffff1680631144fd72146100a95780631586e021146100c95780632e1998ea146100e95780638da5cb5b14610109578063a877f21514610160578063c1dfd6b7146101b7578063cb7e90571461029d578063d835293e146102f4578063e041bc4a146102fe578063e2f8b6191461031e575b600080fd5b6100c7600480360381019080803590602001909291905050506103b6565b005b6100e76004803603810190808035906020019092919050505061061c565b005b61010760048036038101908080359060200190929190505050610891565b005b34801561011557600080fd5b5061011e6109a5565b604051808273ffffffffffffffffffffffffffffffffffffffff1673ffffffffffffffffffffffffffffffffffffffff16815260200191505060405180910390f35b34801561016c57600080fd5b506101756109ca565b604051808273ffffffffffffffffffffffffffffffffffffffff1673ffffffffffffffffffffffffffffffffffffffff16815260200191505060405180910390f35b3480156101c357600080fd5b506101cc6109f0565b604051808873ffffffffffffffffffffffffffffffffffffffff1673ffffffffffffffffffffffffffffffffffffffff16815260200180602001878152602001868152602001858152602001848152602001838152602001828103825288818151815260200191508051906020019080838360005b8381101561025c578082015181840152602081019050610241565b50505050905090810190601f1680156102895780820380516001836020036101000a031916815260200191505b509850505050505050505060405180910390f35b3480156102a957600080fd5b506102b2610b8b565b604051808273ffffffffffffffffffffffffffffffffffffffff1673ffffffffffffffffffffffffffffffffffffffff16815260200191505060405180910390f35b6102fc610bb1565b005b61031c60048036038101908080359060200190929190505050610d64565b005b34801561032a57600080fd5b50610333610f31565b604051808573ffffffffffffffffffffffffffffffffffffffff1673ffffffffffffffffffffffffffffffffffffffff1681526020018481526020018381526020018273ffffffffffffffffffffffffffffffffffffffff1673ffffffffffffffffffffffffffffffffffffffff16815260200194505050505060405180910390f35b60011515600f60010160009054906101000a900460ff161515141515610444576040517f08c379a00000000000000000000000000000000000000000000000000000000081526004018080602001828103825260158152602001807f496e766f6365206861736e27742063726561746564000000000000000000000081525060200191505060405180910390fd5b3373ffffffffffffffffffffffffffffffffffffffff16600360050160000160009054906101000a900473ffffffffffffffffffffffffffffffffffffffff1673ffffffffffffffffffffffffffffffffffffffff16141515610535576040517f08c379a00000000000000000000000000000000000000000000000000000000081526004018080602001828103825260278152602001807f204f6e6c7920646973706174636865722063616e2063616c6c2074686973206681526020017f756e6374696f6e0000000000000000000000000000000000000000000000000081525060400191505060405180910390fd5b6000809054906101000a900473ffffffffffffffffffffffffffffffffffffffff1673ffffffffffffffffffffffffffffffffffffffff166108fc6003600401549081150290604051600060405180830381858888f193505050501580156105a1573d6000803e3d6000fd5b50600360050160000160009054906101000a900473ffffffffffffffffffffffffffffffffffffffff1673ffffffffffffffffffffffffffffffffffffffff166108fc6003600501600301549081150290604051600060405180830381858888f19350505050158015610618573d6000803e3d6000fd5b5050565b33600160006101000a81548173ffffffffffffffffffffffffffffffffffffffff021916908373ffffffffffffffffffffffffffffffffffffffff16021790555060e060405190810160405280600360000154815260200160036001018054600181600116156101000203166002900480601f01602080910402602001604051908101604052809291908181526020018280546001816001161561010002031660029004801561070d5780601f106106e25761010080835404028352916020019161070d565b820191906000526020600020905b8154815290600101906020018083116106f057829003601f168201915b505050505081526020016003600201548152602001600380015481526020016000815260200160c060405190810160405280600073ffffffffffffffffffffffffffffffffffffffff1681526020016000815260200184815260200160008152602001600081526020016000151581525081526020016001151581525060036000820151816000015560208201518160010190805190602001906107b292919061102e565b5060408201518160020155606082015181600301556080820151816004015560a08201518160050160008201518160000160006101000a81548173ffffffffffffffffffffffffffffffffffffffff021916908373ffffffffffffffffffffffffffffffffffffffff1602179055506020820151816001015560408201518160020155606082015181600301556080820151816004015560a08201518160050160006101000a81548160ff021916908315150217905550505060c082015181600b0160006101000a81548160ff02191690831515021790555090505050565b600260009054906101000a900473ffffffffffffffffffffffffffffffffffffffff1673ffffffffffffffffffffffffffffffffffffffff163373ffffffffffffffffffffffffffffffffffffffff16141515610956576040517f08c379a000000000000000000000000000000000000000000000000000000000815260040180806020018281038252601d8152602001807f4f6e6c7920646973706174636865722063616e2063616c6c207468697300000081525060200191505060405180910390fd5b6003600b0160009054906101000a900460ff16151561097457600080fd5b806003600501600101819055506001600360050160050160006101000a81548160ff02191690831515021790555050565b6000809054906101000a900473ffffffffffffffffffffffffffffffffffffffff1681565b600160009054906101000a900473ffffffffffffffffffffffffffffffffffffffff1681565b600060606000806000806000600115156003600b0160009054906101000a900460ff161515141515610a8a576040517f08c379a000000000000000000000000000000000000000000000000000000000815260040180806020018281038252601d8152602001807f546865206f726465722068617320746f20626520696e6974696174656400000081525060200191505060405180910390fd5b600160009054906101000a900473ffffffffffffffffffffffffffffffffffffffff1660036001016003600501600201546003800154600360040154600360050160010154600360050160030154858054600181600116156101000203166002900480601f016020809104026020016040519081016040528092919081815260200182805460018160011615610100020316600290048015610b6d5780601f10610b4257610100808354040283529160200191610b6d565b820191906000526020600020905b815481529060010190602001808311610b5057829003601f168201915b50505050509550965096509650965096509650965090919293949596565b600260009054906101000a900473ffffffffffffffffffffffffffffffffffffffff1681565b6003600b0160009054906101000a900460ff161515610bcf57600080fd5b3373ffffffffffffffffffffffffffffffffffffffff16600160009054906101000a900473ffffffffffffffffffffffffffffffffffffffff1673ffffffffffffffffffffffffffffffffffffffff16141515610c94576040517f08c379a00000000000000000000000000000000000000000000000000000000081526004018080602001828103825260188152602001807f4f6e6c792042757965722063616e2063616c6c2074686973000000000000000081525060200191505060405180910390fd5b34600360050160010154600380015401141515610d3f576040517f08c379a00000000000000000000000000000000000000000000000000000000081526004018080602001828103825260368152602001807f596f75206861766520746f2073656e642073756d206f662070726f647563742081526020017f636f737420616e64207368697070696e6720636f73740000000000000000000081525060400191505060405180910390fd5b6003800154600360040181905550600360050160010154600360050160030181905550565b6003600b0160009054906101000a900460ff161515610d8257600080fd5b3373ffffffffffffffffffffffffffffffffffffffff166000809054906101000a900473ffffffffffffffffffffffffffffffffffffffff1673ffffffffffffffffffffffffffffffffffffffff16141515610e6c576040517f08c379a00000000000000000000000000000000000000000000000000000000081526004018080602001828103825260228152602001807f4f6e6c792073656c6c65722063616e2063616c6c20746869732066756e63746981526020017f6f6e00000000000000000000000000000000000000000000000000000000000081525060400191505060405180910390fd5b6040805190810160405280600360000154815260200160011515815250600f6000820151816000015560208201518160010160006101000a81548160ff02191690831515021790555090505080600360050160040181905550600260009054906101000a900473ffffffffffffffffffffffffffffffffffffffff16600360050160000160006101000a81548173ffffffffffffffffffffffffffffffffffffffff021916908373ffffffffffffffffffffffffffffffffffffffff16021790555050565b60008060008060011515600f60010160009054906101000a900460ff161515141515610fc5576040517f08c379a00000000000000000000000000000000000000000000000000000000081526004018080602001828103825260128152602001807f496e766f696365206861736e277420736574000000000000000000000000000081525060200191505060405180910390fd5b600160009054906101000a900473ffffffffffffffffffffffffffffffffffffffff16600360000154600360050160040154600360050160000160009054906101000a900473ffffffffffffffffffffffffffffffffffffffff16935093509350935090919293565b828054600181600116156101000203166002900490600052602060002090601f016020900481019282601f1061106f57805160ff191683800117855561109d565b8280016001018555821561109d579182015b8281111561109c578251825591602001919060010190611081565b5b5090506110aa91906110ae565b5090565b6110d091905b808211156110cc5760008160009055506001016110b4565b5090565b905600a165627a7a723058201beae5ff3a592f4985fa49443ecf472e3c27db0b91226905035424799c256b160029a165627a7a7230582031703654dede52d37236fa58dbe597521d27eb4615525bd6cd1c8624aef1eb610029",
  "source": "  pragma solidity ^0.4.21;\ncontract Shipments {\n    address[] public deployedConsignments;\n    address public dispatcher;\n    uint orderid;\n    \n    constructor() public payable{\n        dispatcher = msg.sender;\n    }\n    \n    function createConsignment(string good, uint price,uint quantity_available) public returns(address) {\n        orderid++;\n        address newConsignment = new Consignment(good,price,quantity_available,orderid,msg.sender,dispatcher);\n        deployedConsignments.push(newConsignment);\n        return newConsignment;\n    }\n    \n    function getDeployedConsignments() public view returns (address[]) {\n        return deployedConsignments;\n    }\n}\ncontract Consignment {\n\n  address public owner;//seller\n  address public buyerAddr;//buyer\n  address public dispatcher;//dispatcher\n  \n  struct Shipment {\n    address dispatcher;\n    uint price; \n    uint quantity;\n    uint safepay;\n    uint date;\n    bool init;\n  }\n  struct Order {\n    uint orderid;\n    string goods;\n    uint quantity_available;\n    uint price; \n    uint safepay;\n    Shipment shipment;\n    bool init;\n  }\n  struct Invoice {\n    uint orderid; \n    bool init;\n  }\n  \n  Order order ;\n  Invoice invoice;\n\n  /// The smart contract's constructor \n  constructor(string good,uint price,uint quantity_available,uint orderid,address creator,address dispatch) public payable {\n    /// The seller is the contract's owner\n    owner = creator;\n    dispatcher = dispatch;\n    order.orderid = orderid;\n    order.goods = good;\n    order.price = price;\n    order.quantity_available = quantity_available;\n  }\n\n  //by anyone who want to buy that stuff\n  function sendOrder(uint quantity_needed) payable public {\n    buyerAddr = msg.sender;\n    order = Order(order.orderid,order.goods, order.quantity_available,order.price, 0, Shipment(0,0,quantity_needed, 0, 0, false), true);\n\n  }\n\n  /// The function to query orders by orderid\n  ///   Constant functions returns custom fields\n  function queryOrder() constant public returns (address buyer, string goods, uint quantity, uint price, uint safepay, uint delivery_price, uint delivey_safepay) {\n    \n    /// Validate the order number\n    require(order.init == true ,\"The order has to be initiated\");\n\n    /// Return the order data\n    return(buyerAddr, order.goods, order.shipment.quantity, order.price, order.safepay, order.shipment.price, order.shipment.safepay);\n  }\n\n  /// The function to send shipping cost by the dispatcher\n  ///  requires fee\n  function sendShippingCost(uint price) payable public {\n  \n    require(msg.sender == dispatcher,\"Only dispatcher can call this\");\n\n    /// Validate the order\n    require(order.init);\n    order.shipment.price = price;\n    order.shipment.init  = true;\n\n  }\n\n  /// The function to send the value of order's price\n  ///  This value will be blocked until the delivery of order\n  ///  requires fee\n  function sendSafepay() payable public {\n\n    /// Validate the order number\n    require(order.init);\n\n    /// Just the buyer can make safepay\n    require(buyerAddr == msg.sender, \"Only Buyer can call this\");\n\n    /// The order's value plus the shipment value must equal to msg.value\n    require((order.price + order.shipment.price) == msg.value, \"You have to send sum of product cost and shipping cost\");\n\n    order.safepay = order.price;\n    order.shipment.safepay = order.shipment.price;\n  }\n\n  /// The function to send the invoice data\n  ///  requires fee\n  function sendInvoice(uint delivery_date) payable public {\n\n    /// Validate the order\n    require(order.init);\n\n    /// Just the seller can send the invoice\n    require(owner == msg.sender,\"Only seller can call this function\");\n\n    /// Create then Invoice instance and store it\n    invoice = Invoice(order.orderid, true);\n\n    /// Update the shipment data\n    order.shipment.date    = delivery_date;\n    order.shipment.dispatcher = dispatcher;\n  }\n\n  /// The function to get the sent invoice\n  ///  requires no fee\n  function getInvoice() constant public returns (address buyer, uint orderno, uint delivery_date, address dispatch){\n  \n    /// Validate the invoice \n    require(invoice.init == true, \"Invoice hasn't set\");\n    \n    return (buyerAddr, order.orderid, order.shipment.date, order.shipment.dispatcher);\n  }\n\n  /// The function to mark an order as delivered\n  function delivery(uint orderid) payable public {\n\n    /// Validate the invoice \n    require(invoice.init == true, \"Invoce hasn't created\");\n    /// Just the courier can call this function\n    require(order.shipment.dispatcher == msg.sender, \" Only dispatcher can call this function\");\n    /// Payout the Order to the seller\n    owner.transfer(order.safepay);\n\n    /// Payout the Shipment to the courier\n    order.shipment.dispatcher.transfer(order.shipment.safepay);\n\n  }\n\n}\n\n",
  "sourcePath": "/home/lavender/Desktop/App/contracts/Consignment.sol",
  "compiler": {
    "name": "solc",
    "version": "0.4.24+commit.e67f0147.Emscripten.clang"
  },
  "schemaVersion": "2.0.1",
  "updatedAt": "2018-08-17T05:27:22.590Z"
}